{
  "address": "0x876eB8656C009E3268c443b55DCD71852B2113f0",
  "abi": [
    {
      "inputs": [
        {
          "internalType": "string",
          "name": "_uri",
          "type": "string"
        },
        {
          "internalType": "contract IERC20",
          "name": "_weth",
          "type": "address"
        }
      ],
      "stateMutability": "nonpayable",
      "type": "constructor"
    },
    {
      "anonymous": false,
      "inputs": [
        {
          "indexed": true,
          "internalType": "address",
          "name": "account",
          "type": "address"
        },
        {
          "indexed": true,
          "internalType": "address",
          "name": "operator",
          "type": "address"
        },
        {
          "indexed": false,
          "internalType": "bool",
          "name": "approved",
          "type": "bool"
        }
      ],
      "name": "ApprovalForAll",
      "type": "event"
    },
    {
      "anonymous": false,
      "inputs": [
        {
          "indexed": true,
          "internalType": "address",
          "name": "account",
          "type": "address"
        },
        {
          "indexed": true,
          "internalType": "address",
          "name": "sender",
          "type": "address"
        },
        {
          "indexed": false,
          "internalType": "uint256",
          "name": "amount",
          "type": "uint256"
        }
      ],
      "name": "BuyTicket",
      "type": "event"
    },
    {
      "anonymous": false,
      "inputs": [
        {
          "indexed": true,
          "internalType": "address",
          "name": "account",
          "type": "address"
        }
      ],
      "name": "ClaimTicket",
      "type": "event"
    },
    {
      "anonymous": false,
      "inputs": [
        {
          "indexed": true,
          "internalType": "address",
          "name": "previousOwner",
          "type": "address"
        },
        {
          "indexed": true,
          "internalType": "address",
          "name": "newOwner",
          "type": "address"
        }
      ],
      "name": "OwnershipTransferred",
      "type": "event"
    },
    {
      "anonymous": false,
      "inputs": [
        {
          "indexed": true,
          "internalType": "address",
          "name": "account",
          "type": "address"
        },
        {
          "indexed": false,
          "internalType": "uint256",
          "name": "amount",
          "type": "uint256"
        }
      ],
      "name": "ReserveTickets",
      "type": "event"
    },
    {
      "anonymous": false,
      "inputs": [
        {
          "indexed": false,
          "internalType": "uint256",
          "name": "start",
          "type": "uint256"
        },
        {
          "indexed": false,
          "internalType": "uint256",
          "name": "end",
          "type": "uint256"
        },
        {
          "indexed": false,
          "internalType": "uint256",
          "name": "supply",
          "type": "uint256"
        }
      ],
      "name": "SetupRelease",
      "type": "event"
    },
    {
      "anonymous": false,
      "inputs": [
        {
          "indexed": true,
          "internalType": "address",
          "name": "operator",
          "type": "address"
        },
        {
          "indexed": true,
          "internalType": "address",
          "name": "from",
          "type": "address"
        },
        {
          "indexed": true,
          "internalType": "address",
          "name": "to",
          "type": "address"
        },
        {
          "indexed": false,
          "internalType": "uint256[]",
          "name": "ids",
          "type": "uint256[]"
        },
        {
          "indexed": false,
          "internalType": "uint256[]",
          "name": "values",
          "type": "uint256[]"
        }
      ],
      "name": "TransferBatch",
      "type": "event"
    },
    {
      "anonymous": false,
      "inputs": [
        {
          "indexed": true,
          "internalType": "address",
          "name": "operator",
          "type": "address"
        },
        {
          "indexed": true,
          "internalType": "address",
          "name": "from",
          "type": "address"
        },
        {
          "indexed": true,
          "internalType": "address",
          "name": "to",
          "type": "address"
        },
        {
          "indexed": false,
          "internalType": "uint256",
          "name": "id",
          "type": "uint256"
        },
        {
          "indexed": false,
          "internalType": "uint256",
          "name": "value",
          "type": "uint256"
        }
      ],
      "name": "TransferSingle",
      "type": "event"
    },
    {
      "anonymous": false,
      "inputs": [
        {
          "indexed": false,
          "internalType": "string",
          "name": "value",
          "type": "string"
        },
        {
          "indexed": true,
          "internalType": "uint256",
          "name": "id",
          "type": "uint256"
        }
      ],
      "name": "URI",
      "type": "event"
    },
    {
      "inputs": [],
      "name": "available",
      "outputs": [
        {
          "internalType": "uint256",
          "name": "",
          "type": "uint256"
        }
      ],
      "stateMutability": "view",
      "type": "function"
    },
    {
      "inputs": [
        {
          "internalType": "address",
          "name": "account",
          "type": "address"
        },
        {
          "internalType": "uint256",
          "name": "id",
          "type": "uint256"
        }
      ],
      "name": "balanceOf",
      "outputs": [
        {
          "internalType": "uint256",
          "name": "",
          "type": "uint256"
        }
      ],
      "stateMutability": "view",
      "type": "function"
    },
    {
      "inputs": [
        {
          "internalType": "address[]",
          "name": "accounts",
          "type": "address[]"
        },
        {
          "internalType": "uint256[]",
          "name": "ids",
          "type": "uint256[]"
        }
      ],
      "name": "balanceOfBatch",
      "outputs": [
        {
          "internalType": "uint256[]",
          "name": "",
          "type": "uint256[]"
        }
      ],
      "stateMutability": "view",
      "type": "function"
    },
    {
      "inputs": [],
      "name": "buyPrice",
      "outputs": [
        {
          "internalType": "uint256",
          "name": "",
          "type": "uint256"
        }
      ],
      "stateMutability": "view",
      "type": "function"
    },
    {
      "inputs": [
        {
          "internalType": "address",
          "name": "to",
          "type": "address"
        },
        {
          "internalType": "uint256",
          "name": "numberOfTokens",
          "type": "uint256"
        }
      ],
      "name": "buyTicket",
      "outputs": [],
      "stateMutability": "nonpayable",
      "type": "function"
    },
    {
      "inputs": [],
      "name": "claimTicket",
      "outputs": [],
      "stateMutability": "nonpayable",
      "type": "function"
    },
    {
      "inputs": [
        {
          "internalType": "address",
          "name": "",
          "type": "address"
        }
      ],
      "name": "claimsPerAddr",
      "outputs": [
        {
          "internalType": "uint256",
          "name": "",
          "type": "uint256"
        }
      ],
      "stateMutability": "view",
      "type": "function"
    },
    {
      "inputs": [],
      "name": "curMaxSupply",
      "outputs": [
        {
          "internalType": "uint256",
          "name": "",
          "type": "uint256"
        }
      ],
      "stateMutability": "view",
      "type": "function"
    },
    {
      "inputs": [
        {
          "internalType": "uint256",
          "name": "id",
          "type": "uint256"
        }
      ],
      "name": "exists",
      "outputs": [
        {
          "internalType": "bool",
          "name": "",
          "type": "bool"
        }
      ],
      "stateMutability": "view",
      "type": "function"
    },
    {
      "inputs": [
        {
          "internalType": "address",
          "name": "account",
          "type": "address"
        },
        {
          "internalType": "address",
          "name": "operator",
          "type": "address"
        }
      ],
      "name": "isApprovedForAll",
      "outputs": [
        {
          "internalType": "bool",
          "name": "",
          "type": "bool"
        }
      ],
      "stateMutability": "view",
      "type": "function"
    },
    {
      "inputs": [],
      "name": "maxClaimsPerAddr",
      "outputs": [
        {
          "internalType": "uint256",
          "name": "",
          "type": "uint256"
        }
      ],
      "stateMutability": "view",
      "type": "function"
    },
    {
      "inputs": [],
      "name": "maxMintsPerAddr",
      "outputs": [
        {
          "internalType": "uint256",
          "name": "",
          "type": "uint256"
        }
      ],
      "stateMutability": "view",
      "type": "function"
    },
    {
      "inputs": [],
      "name": "maxSupply",
      "outputs": [
        {
          "internalType": "uint256",
          "name": "",
          "type": "uint256"
        }
      ],
      "stateMutability": "view",
      "type": "function"
    },
    {
      "inputs": [
        {
          "internalType": "address",
          "name": "",
          "type": "address"
        }
      ],
      "name": "mintsPerAddr",
      "outputs": [
        {
          "internalType": "uint256",
          "name": "",
          "type": "uint256"
        }
      ],
      "stateMutability": "view",
      "type": "function"
    },
    {
      "inputs": [],
      "name": "name",
      "outputs": [
        {
          "internalType": "string",
          "name": "",
          "type": "string"
        }
      ],
      "stateMutability": "view",
      "type": "function"
    },
    {
      "inputs": [],
      "name": "owner",
      "outputs": [
        {
          "internalType": "address",
          "name": "",
          "type": "address"
        }
      ],
      "stateMutability": "view",
      "type": "function"
    },
    {
      "inputs": [],
      "name": "releaseDuration",
      "outputs": [
        {
          "internalType": "uint256",
          "name": "",
          "type": "uint256"
        }
      ],
      "stateMutability": "view",
      "type": "function"
    },
    {
      "inputs": [],
      "name": "releaseEnd",
      "outputs": [
        {
          "internalType": "uint256",
          "name": "",
          "type": "uint256"
        }
      ],
      "stateMutability": "view",
      "type": "function"
    },
    {
      "inputs": [],
      "name": "releaseMaxSupply",
      "outputs": [
        {
          "internalType": "uint256",
          "name": "",
          "type": "uint256"
        }
      ],
      "stateMutability": "view",
      "type": "function"
    },
    {
      "inputs": [],
      "name": "releaseMinted",
      "outputs": [
        {
          "internalType": "uint256",
          "name": "",
          "type": "uint256"
        }
      ],
      "stateMutability": "view",
      "type": "function"
    },
    {
      "inputs": [],
      "name": "releaseStart",
      "outputs": [
        {
          "internalType": "uint256",
          "name": "",
          "type": "uint256"
        }
      ],
      "stateMutability": "view",
      "type": "function"
    },
    {
      "inputs": [],
      "name": "renounceOwnership",
      "outputs": [],
      "stateMutability": "nonpayable",
      "type": "function"
    },
    {
      "inputs": [],
      "name": "reserveAmount",
      "outputs": [
        {
          "internalType": "uint256",
          "name": "",
          "type": "uint256"
        }
      ],
      "stateMutability": "view",
      "type": "function"
    },
    {
      "inputs": [],
      "name": "reserveMaxAmount",
      "outputs": [
        {
          "internalType": "uint256",
          "name": "",
          "type": "uint256"
        }
      ],
      "stateMutability": "view",
      "type": "function"
    },
    {
      "inputs": [
        {
          "internalType": "address",
          "name": "to",
          "type": "address"
        },
        {
          "internalType": "uint256",
          "name": "numberOfTokens",
          "type": "uint256"
        }
      ],
      "name": "reserveTickets",
      "outputs": [],
      "stateMutability": "nonpayable",
      "type": "function"
    },
    {
      "inputs": [
        {
          "internalType": "address",
          "name": "from",
          "type": "address"
        },
        {
          "internalType": "address",
          "name": "to",
          "type": "address"
        },
        {
          "internalType": "uint256[]",
          "name": "ids",
          "type": "uint256[]"
        },
        {
          "internalType": "uint256[]",
          "name": "amounts",
          "type": "uint256[]"
        },
        {
          "internalType": "bytes",
          "name": "data",
          "type": "bytes"
        }
      ],
      "name": "safeBatchTransferFrom",
      "outputs": [],
      "stateMutability": "nonpayable",
      "type": "function"
    },
    {
      "inputs": [
        {
          "internalType": "address",
          "name": "from",
          "type": "address"
        },
        {
          "internalType": "address",
          "name": "to",
          "type": "address"
        },
        {
          "internalType": "uint256",
          "name": "id",
          "type": "uint256"
        },
        {
          "internalType": "uint256",
          "name": "amount",
          "type": "uint256"
        },
        {
          "internalType": "bytes",
          "name": "data",
          "type": "bytes"
        }
      ],
      "name": "safeTransferFrom",
      "outputs": [],
      "stateMutability": "nonpayable",
      "type": "function"
    },
    {
      "inputs": [
        {
          "internalType": "address",
          "name": "operator",
          "type": "address"
        },
        {
          "internalType": "bool",
          "name": "approved",
          "type": "bool"
        }
      ],
      "name": "setApprovalForAll",
      "outputs": [],
      "stateMutability": "nonpayable",
      "type": "function"
    },
    {
      "inputs": [
        {
          "internalType": "uint256",
          "name": "_buyPrice",
          "type": "uint256"
        }
      ],
      "name": "setBuyPrice",
      "outputs": [],
      "stateMutability": "nonpayable",
      "type": "function"
    },
    {
      "inputs": [
        {
          "internalType": "string",
          "name": "newURI",
          "type": "string"
        }
      ],
      "name": "setURI",
      "outputs": [],
      "stateMutability": "nonpayable",
      "type": "function"
    },
    {
      "inputs": [
        {
          "internalType": "uint256",
          "name": "_releaseStart",
          "type": "uint256"
        },
        {
          "internalType": "uint256",
          "name": "_releaseEnd",
          "type": "uint256"
        },
        {
          "internalType": "uint256",
          "name": "_releaseMaxSupply",
          "type": "uint256"
        }
      ],
      "name": "setupRelease",
      "outputs": [],
      "stateMutability": "nonpayable",
      "type": "function"
    },
    {
      "inputs": [
        {
          "internalType": "bytes4",
          "name": "interfaceId",
          "type": "bytes4"
        }
      ],
      "name": "supportsInterface",
      "outputs": [
        {
          "internalType": "bool",
          "name": "",
          "type": "bool"
        }
      ],
      "stateMutability": "view",
      "type": "function"
    },
    {
      "inputs": [],
      "name": "symbol",
      "outputs": [
        {
          "internalType": "string",
          "name": "",
          "type": "string"
        }
      ],
      "stateMutability": "view",
      "type": "function"
    },
    {
      "inputs": [
        {
          "internalType": "address",
          "name": "account",
          "type": "address"
        }
      ],
      "name": "ticketBalanceOf",
      "outputs": [
        {
          "internalType": "uint256",
          "name": "",
          "type": "uint256"
        }
      ],
      "stateMutability": "view",
      "type": "function"
    },
    {
      "inputs": [],
      "name": "tokenID",
      "outputs": [
        {
          "internalType": "uint256",
          "name": "",
          "type": "uint256"
        }
      ],
      "stateMutability": "view",
      "type": "function"
    },
    {
      "inputs": [
        {
          "internalType": "uint256",
          "name": "id",
          "type": "uint256"
        }
      ],
      "name": "totalSupply",
      "outputs": [
        {
          "internalType": "uint256",
          "name": "",
          "type": "uint256"
        }
      ],
      "stateMutability": "view",
      "type": "function"
    },
    {
      "inputs": [],
      "name": "totalTicketSupply",
      "outputs": [
        {
          "internalType": "uint256",
          "name": "",
          "type": "uint256"
        }
      ],
      "stateMutability": "view",
      "type": "function"
    },
    {
      "inputs": [
        {
          "internalType": "address",
          "name": "newOwner",
          "type": "address"
        }
      ],
      "name": "transferOwnership",
      "outputs": [],
      "stateMutability": "nonpayable",
      "type": "function"
    },
    {
      "inputs": [
        {
          "internalType": "uint256",
          "name": "_id",
          "type": "uint256"
        }
      ],
      "name": "uri",
      "outputs": [
        {
          "internalType": "string",
          "name": "",
          "type": "string"
        }
      ],
      "stateMutability": "view",
      "type": "function"
    },
    {
      "inputs": [],
      "name": "weth",
      "outputs": [
        {
          "internalType": "contract IERC20",
          "name": "",
          "type": "address"
        }
      ],
      "stateMutability": "view",
      "type": "function"
    },
    {
      "inputs": [],
      "name": "withdrawWETH",
      "outputs": [],
      "stateMutability": "nonpayable",
      "type": "function"
    }
  ],
  "transactionHash": "0xc1eb713014c8d543076e6761b418df6c3699e25e077bc5b61addd4d0559ae9de",
  "args": [
    "ipfs://QmeSUfNKCu6bnPYF3MiFfSCcbaUoxcau8Bw3aBToAKFxZv",
    "0xA6FA4fB5f76172d178d61B04b0ecd319C5d1C0aa"
  ],
  "solcInputHash": "1a7be6b1659b9741c601278baca00f95",
  "bytecode": "0x60a0604052662386f26fc100006007556103e86008553480156200002257600080fd5b5060405162002cdb38038062002cdb83398101604081905262000045916200022e565b816200005181620000ea565b506200005d3362000103565b6001600160a01b0381166080526040805180820190915260138082527f4c434120426f617264696e6720506173736573000000000000000000000000006020909201918252620000b09160059162000155565b50604080518082019091526007808252664c43415041535360c81b6020909201918252620000e19160069162000155565b5050506200035c565b8051620000ff90600290602084019062000155565b5050565b600480546001600160a01b038381166001600160a01b0319831681179093556040519116919082907f8be0079c531659141344cd1fd0a4f28419497f9722a3daafe3b4186f6b6457e090600090a35050565b82805462000163906200031f565b90600052602060002090601f016020900481019282620001875760008555620001d2565b82601f10620001a257805160ff1916838001178555620001d2565b82800160010185558215620001d2579182015b82811115620001d2578251825591602001919060010190620001b5565b50620001e0929150620001e4565b5090565b5b80821115620001e05760008155600101620001e5565b634e487b7160e01b600052604160045260246000fd5b80516001600160a01b03811681146200022957600080fd5b919050565b600080604083850312156200024257600080fd5b82516001600160401b03808211156200025a57600080fd5b818501915085601f8301126200026f57600080fd5b815181811115620002845762000284620001fb565b604051601f8201601f19908116603f01168101908382118183101715620002af57620002af620001fb565b81604052828152602093508884848701011115620002cc57600080fd5b600091505b82821015620002f05784820184015181830185015290830190620002d1565b82821115620003025760008484830101525b95506200031491505085820162000211565b925050509250929050565b600181811c908216806200033457607f821691505b602082108114156200035657634e487b7160e01b600052602260045260246000fd5b50919050565b60805161294e6200038d6000396000818161035401528181610aa001528181610b150152610dc6015261294e6000f3fe608060405234801561001057600080fd5b50600436106102525760003560e01c80636b49e5f911610146578063a22cb465116100c3578063cd34f0ee11610087578063cd34f0ee14610503578063d5abeb011461050c578063e985e9c514610515578063f242432a14610551578063f2fde38b14610564578063f9b418911461057757600080fd5b8063a22cb465146104a0578063a5c42ef1146104b3578063ab8caf3b146104bb578063bd85b039146104c3578063c4d2696d146104e357600080fd5b80638bf22a0e1161010a5780638bf22a0e146104635780638da5cb5b1461046c57806393e0682b1461047d57806395d89b41146104905780639c84e6f21461049857600080fd5b80636b49e5f914610437578063715018a614610440578063766e33f4146104485780638033fe49146104515780638620410b1461045a57600080fd5b80633fc8cef3116101d45780634e1273f4116101985780634e1273f4146103c75780634f558e79146103e757806356ce0f671461040957806363ae8d6c1461041157806366a5ef2f1461042457600080fd5b80633fc8cef31461034f57806344098c9f1461038e57806348a0d754146103ae5780634b09b72a146103b65780634c02f62e146103bf57600080fd5b80630e89341c1161021b5780630e89341c146102dd5780631966ebb8146102f05780632240dbdb146102f95780632c4e422d146103295780632eb2c2d61461033c57600080fd5b8062fdd58e1461025757806301ffc9a71461027d57806302fe5305146102a057806306fdde03146102b55780630e75822c146102ca575b600080fd5b61026a610265366004611f89565b610580565b6040519081526020015b60405180910390f35b61029061028b366004611fc9565b610617565b6040519015158152602001610274565b6102b36102ae366004612087565b610669565b005b6102bd6106d8565b6040516102749190612130565b6102b36102d8366004611f89565b610766565b6102bd6102eb366004612143565b6108b4565b61026a600f5481565b6000805260036020527f3617319a054d772f909f7c479a2cebe5066e836a939412e32403c99029b92eff5461026a565b61026a61033736600461215c565b610925565b6102b361034a36600461222c565b610932565b6103767f000000000000000000000000000000000000000000000000000000000000000081565b6040516001600160a01b039091168152602001610274565b61026a61039c36600461215c565b60106020526000908152604090205481565b61026a6109c9565b61026a60095481565b6102b3610a53565b6103da6103d53660046122d6565b610b3e565b60405161027491906123dc565b6102906103f5366004612143565b600090815260036020526040902054151590565b61026a600181565b6102b361041f366004612143565b610c68565b6102b3610432366004611f89565b610c97565b61026a600d5481565b6102b3610e3d565b61026a600a5481565b61026a600b5481565b61026a60075481565b61026a60085481565b6004546001600160a01b0316610376565b6102b361048b3660046123ef565b610e71565b6102bd610fe7565b6102b3610ff4565b6102b36104ae366004612429565b6111e1565b61026a600081565b61026a600581565b61026a6104d1366004612143565b60009081526003602052604090205490565b61026a6104f136600461215c565b60116020526000908152604090205481565b61026a600e5481565b61026a61271081565b610290610523366004612460565b6001600160a01b03918216600090815260016020908152604080832093909416825291909152205460ff1690565b6102b361055f366004612493565b6112b8565b6102b361057236600461215c565b61133f565b61026a600c5481565b60006001600160a01b0383166105f15760405162461bcd60e51b815260206004820152602b60248201527f455243313135353a2062616c616e636520717565727920666f7220746865207a60448201526a65726f206164647265737360a81b60648201526084015b60405180910390fd5b506000908152602081815260408083206001600160a01b03949094168352929052205490565b60006001600160e01b03198216636cdb3d1360e11b148061064857506001600160e01b031982166303a24d0760e21b145b8061066357506301ffc9a760e01b6001600160e01b03198316145b92915050565b6004546001600160a01b031633146106935760405162461bcd60e51b81526004016105e8906124f8565b61069c816113da565b60007f6bb7ff708619ba0610cba295a58592e0451dee2622938c8755667688daf3529b826040516106cd9190612130565b60405180910390a250565b600580546106e59061252d565b80601f01602080910402602001604051908101604052809291908181526020018280546107119061252d565b801561075e5780601f106107335761010080835404028352916020019161075e565b820191906000526020600020905b81548152906001019060200180831161074157829003601f168201915b505050505081565b6004546001600160a01b031633146107905760405162461bcd60e51b81526004016105e8906124f8565b61271081600f546107a1919061257e565b11156107bf5760405162461bcd60e51b81526004016105e890612596565b600854816009546107d0919061257e565b11156108325760405162461bcd60e51b815260206004820152602b60248201527f4d696e7420776f756c64206578656564206d617820616c6c6f7765642072657360448201526a195c9d9948185b5bdd5b9d60aa1b60648201526084016105e8565b80600f6000828254610844919061257e565b92505081905550806009600082825461085d919061257e565b9091555061086d905082826113f1565b816001600160a01b03167fdc1be2b3178a4f8f792d301d58c67ced5cf041ef7c9601aaedbd3ccf3957ddc3826040516108a891815260200190565b60405180910390a25050565b6060811561091c5760405162461bcd60e51b815260206004820152602f60248201527f4552433732314d657461646174613a2055524920717565727920666f72206e6f60448201526e3732bc34b9ba32b73a103a37b5b2b760891b60648201526084016105e8565b6106638261140d565b6000610663826000610580565b6001600160a01b03851633148061094e575061094e8533610523565b6109b55760405162461bcd60e51b815260206004820152603260248201527f455243313135353a207472616e736665722063616c6c6572206973206e6f74206044820152711bdddb995c881b9bdc88185c1c1c9bdd995960721b60648201526084016105e8565b6109c285858585856114a1565b5050505050565b600080600e54600d546109dc91906125dd565b9050600a544210156109f057600091505090565b600b544211156109ff57919050565b6000600c54600a5442610a1291906125dd565b600d54610a1f91906125f4565b610a299190612613565b9050600e548111610a3b576000610a48565b600e54610a4890826125dd565b9250505090565b5090565b6004546001600160a01b03163314610a7d5760405162461bcd60e51b81526004016105e8906124f8565b6040516370a0823160e01b8152306004820152610b3c9033906001600160a01b037f000000000000000000000000000000000000000000000000000000000000000016906370a0823190602401602060405180830381865afa158015610ae7573d6000803e3d6000fd5b505050506040513d601f19601f82011682018060405250810190610b0b9190612635565b6001600160a01b037f000000000000000000000000000000000000000000000000000000000000000016919061167e565b565b60608151835114610ba35760405162461bcd60e51b815260206004820152602960248201527f455243313135353a206163636f756e747320616e6420696473206c656e677468604482015268040dad2e6dac2e8c6d60bb1b60648201526084016105e8565b6000835167ffffffffffffffff811115610bbf57610bbf611fe6565b604051908082528060200260200182016040528015610be8578160200160208202803683370190505b50905060005b8451811015610c6057610c33858281518110610c0c57610c0c61264e565b6020026020010151858381518110610c2657610c2661264e565b6020026020010151610580565b828281518110610c4557610c4561264e565b6020908102919091010152610c5981612664565b9050610bee565b509392505050565b6004546001600160a01b03163314610c925760405162461bcd60e51b81526004016105e8906124f8565b600755565b333214610cd55760405162461bcd60e51b815260206004820152600c60248201526b4d7573742075736520454f4160a01b60448201526064016105e8565b6001600160a01b038216600090815260106020526040902054600590610cfc90839061257e565b1115610d4a5760405162461bcd60e51b815260206004820152601e60248201527f4d6178206d696e7473207065722061646472657373206578636565646564000060448201526064016105e8565b600f5481610d7f6000805260036020527f3617319a054d772f909f7c479a2cebe5066e836a939412e32403c99029b92eff5490565b610d89919061257e565b1115610da75760405162461bcd60e51b81526004016105e890612596565b600060075482610db791906125f4565b9050610dee6001600160a01b037f0000000000000000000000000000000000000000000000000000000000000000163330846116e6565b610df88383611724565b60405182815233906001600160a01b038516907f183b7d2009bd295f45618f67543e0ff22bd119ab0449f00482d31b796b1707869060200160405180910390a3505050565b6004546001600160a01b03163314610e675760405162461bcd60e51b81526004016105e8906124f8565b610b3c6000611775565b6004546001600160a01b03163314610e9b5760405162461bcd60e51b81526004016105e8906124f8565b600b5442118015610eb15750610eaf6109c9565b155b610f075760405162461bcd60e51b815260206004820152602160248201527f50726576696f75732072656c65617365206973207374696c6c2072756e6e696e6044820152606760f81b60648201526084016105e8565b61271081600f54610f18919061257e565b1115610f665760405162461bcd60e51b815260206004820181905260248201527f496e636f72726563742072656c656173654d6178537570706c792076616c756560448201526064016105e8565b600a839055600b829055610f7a83836125dd565b600c55600d819055600f8054829190600090610f9790849061257e565b90915550506000600e5560408051848152602081018490529081018290527f161f863c66e922aa93d8c39fcabf4d758415785c253e261588ec6e5de68cb03a9060600160405180910390a1505050565b600680546106e59061252d565b3332146110325760405162461bcd60e51b815260206004820152600c60248201526b4d7573742075736520454f4160a01b60448201526064016105e8565b336000908152601160205260409020546001116110915760405162461bcd60e51b815260206004820152601f60248201527f4d617820636c61696d732070657220616464726573732065786365656465640060448201526064016105e8565b336000908152601060205260409020546005116110f05760405162461bcd60e51b815260206004820152601e60248201527f4d6178206d696e7473207065722061646472657373206578636565646564000060448201526064016105e8565b600f546000805260036020527f3617319a054d772f909f7c479a2cebe5066e836a939412e32403c99029b92eff541061113b5760405162461bcd60e51b81526004016105e890612596565b60006111456109c9565b116111895760405162461bcd60e51b81526020600482015260146024820152734e6f207469636b65747320617661696c61626c6560601b60448201526064016105e8565b3360009081526011602052604081208054916111a483612664565b91905055506111b4336001611724565b60405133907f1b95c0400d5c41a0ede89b5c1e59863547019bfb3ec7c4d321f59262fcc6c79890600090a2565b336001600160a01b038316141561124c5760405162461bcd60e51b815260206004820152602960248201527f455243313135353a2073657474696e6720617070726f76616c20737461747573604482015268103337b91039b2b63360b91b60648201526084016105e8565b3360008181526001602090815260408083206001600160a01b03871680855290835292819020805460ff191686151590811790915590519081529192917f17307eab39ab6107e8899845ad3d59bd9653f200f220920489ca2b5937696c31910160405180910390a35050565b6001600160a01b0385163314806112d457506112d48533610523565b6113325760405162461bcd60e51b815260206004820152602960248201527f455243313135353a2063616c6c6572206973206e6f74206f776e6572206e6f7260448201526808185c1c1c9bdd995960ba1b60648201526084016105e8565b6109c285858585856117c7565b6004546001600160a01b031633146113695760405162461bcd60e51b81526004016105e8906124f8565b6001600160a01b0381166113ce5760405162461bcd60e51b815260206004820152602660248201527f4f776e61626c653a206e6577206f776e657220697320746865207a65726f206160448201526564647265737360d01b60648201526084016105e8565b6113d781611775565b50565b80516113ed906002906020840190611edd565b5050565b6113ed82600083604051806020016040528060008152506118ed565b60606002805461141c9061252d565b80601f01602080910402602001604051908101604052809291908181526020018280546114489061252d565b80156114955780601f1061146a57610100808354040283529160200191611495565b820191906000526020600020905b81548152906001019060200180831161147857829003601f168201915b50505050509050919050565b81518351146115035760405162461bcd60e51b815260206004820152602860248201527f455243313135353a2069647320616e6420616d6f756e7473206c656e677468206044820152670dad2e6dac2e8c6d60c31b60648201526084016105e8565b6001600160a01b0384166115295760405162461bcd60e51b81526004016105e89061267f565b3360005b845181101561161057600085828151811061154a5761154a61264e565b6020026020010151905060008583815181106115685761156861264e565b602090810291909101810151600084815280835260408082206001600160a01b038e1683529093529190912054909150818110156115b85760405162461bcd60e51b81526004016105e8906126c4565b6000838152602081815260408083206001600160a01b038e8116855292528083208585039055908b168252812080548492906115f590849061257e565b925050819055505050508061160990612664565b905061152d565b50846001600160a01b0316866001600160a01b0316826001600160a01b03167f4a39dc06d4c0dbc64b70af90fd698a233a518aa5d07e595d983b8c0526c8f7fb878760405161166092919061270e565b60405180910390a46116768187878787876118f9565b505050505050565b6040516001600160a01b0383166024820152604481018290526116e190849063a9059cbb60e01b906064015b60408051601f198184030181529190526020810180516001600160e01b03166001600160e01b031990931692909217909152611a55565b505050565b6040516001600160a01b038085166024830152831660448201526064810182905261171e9085906323b872dd60e01b906084016116aa565b50505050565b6001600160a01b0382166000908152601060205260408120805483929061174c90849061257e565b9250508190555080600e6000828254611765919061257e565b909155506113ed905082826113f1565b600480546001600160a01b038381166001600160a01b0319831681179093556040519116919082907f8be0079c531659141344cd1fd0a4f28419497f9722a3daafe3b4186f6b6457e090600090a35050565b6001600160a01b0384166117ed5760405162461bcd60e51b81526004016105e89061267f565b336118068187876117fd88611b27565b6109c288611b27565b6000848152602081815260408083206001600160a01b038a168452909152902054838110156118475760405162461bcd60e51b81526004016105e8906126c4565b6000858152602081815260408083206001600160a01b038b811685529252808320878503905590881682528120805486929061188490849061257e565b909155505060408051868152602081018690526001600160a01b03808916928a821692918616917fc3d58168c5ae7397731d063d5bbf3d657854427343f4c083240f7aacaa2d0f62910160405180910390a46118e4828888888888611b72565b50505050505050565b61171e84848484611c2d565b6001600160a01b0384163b156116765760405163bc197c8160e01b81526001600160a01b0385169063bc197c819061193d908990899088908890889060040161273c565b6020604051808303816000875af1925050508015611978575060408051601f3d908101601f191682019092526119759181019061279a565b60015b611a25576119846127b7565b806308c379a014156119be57506119996127d3565b806119a457506119c0565b8060405162461bcd60e51b81526004016105e89190612130565b505b60405162461bcd60e51b815260206004820152603460248201527f455243313135353a207472616e7366657220746f206e6f6e20455243313135356044820152732932b1b2b4bb32b91034b6b83632b6b2b73a32b960611b60648201526084016105e8565b6001600160e01b0319811663bc197c8160e01b146118e45760405162461bcd60e51b81526004016105e89061285d565b6000611aaa826040518060400160405280602081526020017f5361666545524332303a206c6f772d6c6576656c2063616c6c206661696c6564815250856001600160a01b0316611c629092919063ffffffff16565b8051909150156116e15780806020019051810190611ac891906128a5565b6116e15760405162461bcd60e51b815260206004820152602a60248201527f5361666545524332303a204552433230206f7065726174696f6e20646964206e6044820152691bdd081cdd58d8d9595960b21b60648201526084016105e8565b60408051600180825281830190925260609160009190602080830190803683370190505090508281600081518110611b6157611b6161264e565b602090810291909101015292915050565b6001600160a01b0384163b156116765760405163f23a6e6160e01b81526001600160a01b0385169063f23a6e6190611bb690899089908890889088906004016128c2565b6020604051808303816000875af1925050508015611bf1575060408051601f3d908101601f19168201909252611bee9181019061279a565b60015b611bfd576119846127b7565b6001600160e01b0319811663f23a6e6160e01b146118e45760405162461bcd60e51b81526004016105e89061285d565b611c3984848484611c7b565b60008381526003602052604081208054849290611c5790849061257e565b909155505050505050565b6060611c718484600085611d7c565b90505b9392505050565b6001600160a01b038416611cdb5760405162461bcd60e51b815260206004820152602160248201527f455243313135353a206d696e7420746f20746865207a65726f206164647265736044820152607360f81b60648201526084016105e8565b33611cec816000876117fd88611b27565b6000848152602081815260408083206001600160a01b038916845290915281208054859290611d1c90849061257e565b909155505060408051858152602081018590526001600160a01b0380881692600092918516917fc3d58168c5ae7397731d063d5bbf3d657854427343f4c083240f7aacaa2d0f62910160405180910390a46109c281600087878787611b72565b606082471015611ddd5760405162461bcd60e51b815260206004820152602660248201527f416464726573733a20696e73756666696369656e742062616c616e636520666f6044820152651c8818d85b1b60d21b60648201526084016105e8565b843b611e2b5760405162461bcd60e51b815260206004820152601d60248201527f416464726573733a2063616c6c20746f206e6f6e2d636f6e747261637400000060448201526064016105e8565b600080866001600160a01b03168587604051611e4791906128fc565b60006040518083038185875af1925050503d8060008114611e84576040519150601f19603f3d011682016040523d82523d6000602084013e611e89565b606091505b5091509150611e99828286611ea4565b979650505050505050565b60608315611eb3575081611c74565b825115611ec35782518084602001fd5b8160405162461bcd60e51b81526004016105e89190612130565b828054611ee99061252d565b90600052602060002090601f016020900481019282611f0b5760008555611f51565b82601f10611f2457805160ff1916838001178555611f51565b82800160010185558215611f51579182015b82811115611f51578251825591602001919060010190611f36565b50610a4f9291505b80821115610a4f5760008155600101611f59565b80356001600160a01b0381168114611f8457600080fd5b919050565b60008060408385031215611f9c57600080fd5b611fa583611f6d565b946020939093013593505050565b6001600160e01b0319811681146113d757600080fd5b600060208284031215611fdb57600080fd5b8135611c7481611fb3565b634e487b7160e01b600052604160045260246000fd5b601f8201601f1916810167ffffffffffffffff8111828210171561202257612022611fe6565b6040525050565b600067ffffffffffffffff83111561204357612043611fe6565b60405161205a601f8501601f191660200182611ffc565b80915083815284848401111561206f57600080fd5b83836020830137600060208583010152509392505050565b60006020828403121561209957600080fd5b813567ffffffffffffffff8111156120b057600080fd5b8201601f810184136120c157600080fd5b6120d084823560208401612029565b949350505050565b60005b838110156120f35781810151838201526020016120db565b8381111561171e5750506000910152565b6000815180845261211c8160208601602086016120d8565b601f01601f19169290920160200192915050565b602081526000611c746020830184612104565b60006020828403121561215557600080fd5b5035919050565b60006020828403121561216e57600080fd5b611c7482611f6d565b600067ffffffffffffffff82111561219157612191611fe6565b5060051b60200190565b600082601f8301126121ac57600080fd5b813560206121b982612177565b6040516121c68282611ffc565b83815260059390931b85018201928281019150868411156121e657600080fd5b8286015b8481101561220157803583529183019183016121ea565b509695505050505050565b600082601f83011261221d57600080fd5b611c7483833560208501612029565b600080600080600060a0868803121561224457600080fd5b61224d86611f6d565b945061225b60208701611f6d565b9350604086013567ffffffffffffffff8082111561227857600080fd5b61228489838a0161219b565b9450606088013591508082111561229a57600080fd5b6122a689838a0161219b565b935060808801359150808211156122bc57600080fd5b506122c98882890161220c565b9150509295509295909350565b600080604083850312156122e957600080fd5b823567ffffffffffffffff8082111561230157600080fd5b818501915085601f83011261231557600080fd5b8135602061232282612177565b60405161232f8282611ffc565b83815260059390931b850182019282810191508984111561234f57600080fd5b948201945b838610156123745761236586611f6d565b82529482019490820190612354565b9650508601359250508082111561238a57600080fd5b506123978582860161219b565b9150509250929050565b600081518084526020808501945080840160005b838110156123d1578151875295820195908201906001016123b5565b509495945050505050565b602081526000611c7460208301846123a1565b60008060006060848603121561240457600080fd5b505081359360208301359350604090920135919050565b80151581146113d757600080fd5b6000806040838503121561243c57600080fd5b61244583611f6d565b915060208301356124558161241b565b809150509250929050565b6000806040838503121561247357600080fd5b61247c83611f6d565b915061248a60208401611f6d565b90509250929050565b600080600080600060a086880312156124ab57600080fd5b6124b486611f6d565b94506124c260208701611f6d565b93506040860135925060608601359150608086013567ffffffffffffffff8111156124ec57600080fd5b6122c98882890161220c565b6020808252818101527f4f776e61626c653a2063616c6c6572206973206e6f7420746865206f776e6572604082015260600190565b600181811c9082168061254157607f821691505b6020821081141561256257634e487b7160e01b600052602260045260246000fd5b50919050565b634e487b7160e01b600052601160045260246000fd5b6000821982111561259157612591612568565b500190565b60208082526027908201527f4d696e7420776f756c6420657863656564206d617820737570706c79206f66206040820152665469636b65747360c81b606082015260800190565b6000828210156125ef576125ef612568565b500390565b600081600019048311821515161561260e5761260e612568565b500290565b60008261263057634e487b7160e01b600052601260045260246000fd5b500490565b60006020828403121561264757600080fd5b5051919050565b634e487b7160e01b600052603260045260246000fd5b600060001982141561267857612678612568565b5060010190565b60208082526025908201527f455243313135353a207472616e7366657220746f20746865207a65726f206164604082015264647265737360d81b606082015260800190565b6020808252602a908201527f455243313135353a20696e73756666696369656e742062616c616e636520666f60408201526939103a3930b739b332b960b11b606082015260800190565b60408152600061272160408301856123a1565b828103602084015261273381856123a1565b95945050505050565b6001600160a01b0386811682528516602082015260a060408201819052600090612768908301866123a1565b828103606084015261277a81866123a1565b9050828103608084015261278e8185612104565b98975050505050505050565b6000602082840312156127ac57600080fd5b8151611c7481611fb3565b600060033d11156127d05760046000803e5060005160e01c5b90565b600060443d10156127e15790565b6040516003193d81016004833e81513d67ffffffffffffffff816024840111818411171561281157505050505090565b82850191508151818111156128295750505050505090565b843d87010160208285010111156128435750505050505090565b61285260208286010187611ffc565b509095945050505050565b60208082526028908201527f455243313135353a204552433131353552656365697665722072656a656374656040820152676420746f6b656e7360c01b606082015260800190565b6000602082840312156128b757600080fd5b8151611c748161241b565b6001600160a01b03868116825285166020820152604081018490526060810183905260a060808201819052600090611e9990830184612104565b6000825161290e8184602087016120d8565b919091019291505056fea264697066735822122090aa5f05191394daaf2991ccb058bfa6db8fda8593723e29e2182914bcf9aa3164736f6c634300080a0033",
  "devdoc": {
    "details": "Extends ERC1155 Token Standard basic implementation",
    "kind": "dev",
    "methods": {
      "balanceOf(address,uint256)": {
        "details": "See {IERC1155-balanceOf}. Requirements: - `account` cannot be the zero address."
      },
      "balanceOfBatch(address[],uint256[])": {
        "details": "See {IERC1155-balanceOfBatch}. Requirements: - `accounts` and `ids` must have the same length."
      },
      "exists(uint256)": {
        "details": "Indicates weither any token exist with a given id, or not."
      },
      "isApprovedForAll(address,address)": {
        "details": "See {IERC1155-isApprovedForAll}."
      },
      "owner()": {
        "details": "Returns the address of the current owner."
      },
      "renounceOwnership()": {
        "details": "Leaves the contract without owner. It will not be possible to call `onlyOwner` functions anymore. Can only be called by the current owner. NOTE: Renouncing ownership will leave the contract without an owner, thereby removing any functionality that is only available to the owner."
      },
      "safeBatchTransferFrom(address,address,uint256[],uint256[],bytes)": {
        "details": "See {IERC1155-safeBatchTransferFrom}."
      },
      "safeTransferFrom(address,address,uint256,uint256,bytes)": {
        "details": "See {IERC1155-safeTransferFrom}."
      },
      "setApprovalForAll(address,bool)": {
        "details": "See {IERC1155-setApprovalForAll}."
      },
      "supportsInterface(bytes4)": {
        "details": "See {IERC165-supportsInterface}."
      },
      "totalSupply(uint256)": {
        "details": "Total amount of tokens in with a given id."
      },
      "transferOwnership(address)": {
        "details": "Transfers ownership of the contract to a new account (`newOwner`). Can only be called by the current owner."
      }
    },
    "stateVariables": {
      "maxMintsPerAddr": {
        "details": "buys + claims <= maxMintsPerAddr"
      }
    },
    "title": "Apollo2022 Boarding Passes Contract",
    "version": 1
  },
  "userdoc": {
    "kind": "user",
    "methods": {},
    "version": 1
  },
  "storageLayout": {
    "storage": [
      {
        "astId": 169,
        "contract": "contracts/Apollo2022.sol:Apollo2022",
        "label": "_balances",
        "offset": 0,
        "slot": "0",
        "type": "t_mapping(t_uint256,t_mapping(t_address,t_uint256))"
      },
      {
        "astId": 175,
        "contract": "contracts/Apollo2022.sol:Apollo2022",
        "label": "_operatorApprovals",
        "offset": 0,
        "slot": "1",
        "type": "t_mapping(t_address,t_mapping(t_address,t_bool))"
      },
      {
        "astId": 177,
        "contract": "contracts/Apollo2022.sol:Apollo2022",
        "label": "_uri",
        "offset": 0,
        "slot": "2",
        "type": "t_string_storage"
      },
      {
        "astId": 1397,
        "contract": "contracts/Apollo2022.sol:Apollo2022",
        "label": "_totalSupply",
        "offset": 0,
        "slot": "3",
        "type": "t_mapping(t_uint256,t_uint256)"
      },
      {
        "astId": 7,
        "contract": "contracts/Apollo2022.sol:Apollo2022",
        "label": "_owner",
        "offset": 0,
        "slot": "4",
        "type": "t_address"
      },
      {
        "astId": 4669,
        "contract": "contracts/Apollo2022.sol:Apollo2022",
        "label": "name",
        "offset": 0,
        "slot": "5",
        "type": "t_string_storage"
      },
      {
        "astId": 4671,
        "contract": "contracts/Apollo2022.sol:Apollo2022",
        "label": "symbol",
        "offset": 0,
        "slot": "6",
        "type": "t_string_storage"
      },
      {
        "astId": 4896,
        "contract": "contracts/Apollo2022.sol:Apollo2022",
        "label": "buyPrice",
        "offset": 0,
        "slot": "7",
        "type": "t_uint256"
      },
      {
        "astId": 4899,
        "contract": "contracts/Apollo2022.sol:Apollo2022",
        "label": "reserveMaxAmount",
        "offset": 0,
        "slot": "8",
        "type": "t_uint256"
      },
      {
        "astId": 4901,
        "contract": "contracts/Apollo2022.sol:Apollo2022",
        "label": "reserveAmount",
        "offset": 0,
        "slot": "9",
        "type": "t_uint256"
      },
      {
        "astId": 4903,
        "contract": "contracts/Apollo2022.sol:Apollo2022",
        "label": "releaseStart",
        "offset": 0,
        "slot": "10",
        "type": "t_uint256"
      },
      {
        "astId": 4905,
        "contract": "contracts/Apollo2022.sol:Apollo2022",
        "label": "releaseEnd",
        "offset": 0,
        "slot": "11",
        "type": "t_uint256"
      },
      {
        "astId": 4907,
        "contract": "contracts/Apollo2022.sol:Apollo2022",
        "label": "releaseDuration",
        "offset": 0,
        "slot": "12",
        "type": "t_uint256"
      },
      {
        "astId": 4909,
        "contract": "contracts/Apollo2022.sol:Apollo2022",
        "label": "releaseMaxSupply",
        "offset": 0,
        "slot": "13",
        "type": "t_uint256"
      },
      {
        "astId": 4911,
        "contract": "contracts/Apollo2022.sol:Apollo2022",
        "label": "releaseMinted",
        "offset": 0,
        "slot": "14",
        "type": "t_uint256"
      },
      {
        "astId": 4913,
        "contract": "contracts/Apollo2022.sol:Apollo2022",
        "label": "curMaxSupply",
        "offset": 0,
        "slot": "15",
        "type": "t_uint256"
      },
      {
        "astId": 4920,
        "contract": "contracts/Apollo2022.sol:Apollo2022",
        "label": "mintsPerAddr",
        "offset": 0,
        "slot": "16",
        "type": "t_mapping(t_address,t_uint256)"
      },
      {
        "astId": 4924,
        "contract": "contracts/Apollo2022.sol:Apollo2022",
        "label": "claimsPerAddr",
        "offset": 0,
        "slot": "17",
        "type": "t_mapping(t_address,t_uint256)"
      }
    ],
    "types": {
      "t_address": {
        "encoding": "inplace",
        "label": "address",
        "numberOfBytes": "20"
      },
      "t_bool": {
        "encoding": "inplace",
        "label": "bool",
        "numberOfBytes": "1"
      },
      "t_mapping(t_address,t_bool)": {
        "encoding": "mapping",
        "key": "t_address",
        "label": "mapping(address => bool)",
        "numberOfBytes": "32",
        "value": "t_bool"
      },
      "t_mapping(t_address,t_mapping(t_address,t_bool))": {
        "encoding": "mapping",
        "key": "t_address",
        "label": "mapping(address => mapping(address => bool))",
        "numberOfBytes": "32",
        "value": "t_mapping(t_address,t_bool)"
      },
      "t_mapping(t_address,t_uint256)": {
        "encoding": "mapping",
        "key": "t_address",
        "label": "mapping(address => uint256)",
        "numberOfBytes": "32",
        "value": "t_uint256"
      },
      "t_mapping(t_uint256,t_mapping(t_address,t_uint256))": {
        "encoding": "mapping",
        "key": "t_uint256",
        "label": "mapping(uint256 => mapping(address => uint256))",
        "numberOfBytes": "32",
        "value": "t_mapping(t_address,t_uint256)"
      },
      "t_mapping(t_uint256,t_uint256)": {
        "encoding": "mapping",
        "key": "t_uint256",
        "label": "mapping(uint256 => uint256)",
        "numberOfBytes": "32",
        "value": "t_uint256"
      },
      "t_string_storage": {
        "encoding": "bytes",
        "label": "string",
        "numberOfBytes": "32"
      },
      "t_uint256": {
        "encoding": "inplace",
        "label": "uint256",
        "numberOfBytes": "32"
      }
    }
  }
}