{
  "address": "0xEdD65e9caF67ebA0c8F0ED5DB6a995ce18469f37",
  "abi": [
    {
      "inputs": [
        {
          "internalType": "contract IERC20",
          "name": "_weth",
          "type": "address"
        }
      ],
      "stateMutability": "nonpayable",
      "type": "constructor"
    },
    {
      "anonymous": false,
      "inputs": [
        {
          "indexed": true,
          "internalType": "address",
          "name": "owner",
          "type": "address"
        },
        {
          "indexed": true,
          "internalType": "address",
          "name": "approved",
          "type": "address"
        },
        {
          "indexed": true,
          "internalType": "uint256",
          "name": "tokenId",
          "type": "uint256"
        }
      ],
      "name": "Approval",
      "type": "event"
    },
    {
      "anonymous": false,
      "inputs": [
        {
          "indexed": true,
          "internalType": "address",
          "name": "owner",
          "type": "address"
        },
        {
          "indexed": true,
          "internalType": "address",
          "name": "operator",
          "type": "address"
        },
        {
          "indexed": false,
          "internalType": "bool",
          "name": "approved",
          "type": "bool"
        }
      ],
      "name": "ApprovalForAll",
      "type": "event"
    },
    {
      "anonymous": false,
      "inputs": [
        {
          "indexed": true,
          "internalType": "address",
          "name": "previousOwner",
          "type": "address"
        },
        {
          "indexed": true,
          "internalType": "address",
          "name": "newOwner",
          "type": "address"
        }
      ],
      "name": "OwnershipTransferred",
      "type": "event"
    },
    {
      "anonymous": false,
      "inputs": [
        {
          "indexed": true,
          "internalType": "address",
          "name": "from",
          "type": "address"
        },
        {
          "indexed": true,
          "internalType": "address",
          "name": "to",
          "type": "address"
        },
        {
          "indexed": true,
          "internalType": "uint256",
          "name": "tokenId",
          "type": "uint256"
        }
      ],
      "name": "Transfer",
      "type": "event"
    },
    {
      "inputs": [
        {
          "internalType": "address",
          "name": "to",
          "type": "address"
        },
        {
          "internalType": "uint256",
          "name": "tokenId",
          "type": "uint256"
        }
      ],
      "name": "approve",
      "outputs": [],
      "stateMutability": "nonpayable",
      "type": "function"
    },
    {
      "inputs": [],
      "name": "available",
      "outputs": [
        {
          "internalType": "uint256",
          "name": "",
          "type": "uint256"
        }
      ],
      "stateMutability": "view",
      "type": "function"
    },
    {
      "inputs": [
        {
          "internalType": "address",
          "name": "owner",
          "type": "address"
        }
      ],
      "name": "balanceOf",
      "outputs": [
        {
          "internalType": "uint256",
          "name": "",
          "type": "uint256"
        }
      ],
      "stateMutability": "view",
      "type": "function"
    },
    {
      "inputs": [
        {
          "internalType": "uint256",
          "name": "tokenId",
          "type": "uint256"
        }
      ],
      "name": "burn",
      "outputs": [],
      "stateMutability": "nonpayable",
      "type": "function"
    },
    {
      "inputs": [],
      "name": "buyPrice",
      "outputs": [
        {
          "internalType": "uint256",
          "name": "",
          "type": "uint256"
        }
      ],
      "stateMutability": "view",
      "type": "function"
    },
    {
      "inputs": [
        {
          "internalType": "address",
          "name": "to",
          "type": "address"
        },
        {
          "internalType": "uint256",
          "name": "numberOfTokens",
          "type": "uint256"
        }
      ],
      "name": "buyTicket",
      "outputs": [],
      "stateMutability": "nonpayable",
      "type": "function"
    },
    {
      "inputs": [],
      "name": "claimTicket",
      "outputs": [],
      "stateMutability": "nonpayable",
      "type": "function"
    },
    {
      "inputs": [
        {
          "internalType": "address",
          "name": "",
          "type": "address"
        }
      ],
      "name": "claimsPerAddr",
      "outputs": [
        {
          "internalType": "uint256",
          "name": "",
          "type": "uint256"
        }
      ],
      "stateMutability": "view",
      "type": "function"
    },
    {
      "inputs": [],
      "name": "curMaxSupply",
      "outputs": [
        {
          "internalType": "uint256",
          "name": "",
          "type": "uint256"
        }
      ],
      "stateMutability": "view",
      "type": "function"
    },
    {
      "inputs": [
        {
          "internalType": "uint256",
          "name": "tokenId",
          "type": "uint256"
        }
      ],
      "name": "getApproved",
      "outputs": [
        {
          "internalType": "address",
          "name": "",
          "type": "address"
        }
      ],
      "stateMutability": "view",
      "type": "function"
    },
    {
      "inputs": [
        {
          "internalType": "uint256",
          "name": "",
          "type": "uint256"
        }
      ],
      "name": "holders",
      "outputs": [
        {
          "internalType": "address",
          "name": "",
          "type": "address"
        }
      ],
      "stateMutability": "view",
      "type": "function"
    },
    {
      "inputs": [
        {
          "internalType": "address",
          "name": "owner",
          "type": "address"
        },
        {
          "internalType": "address",
          "name": "operator",
          "type": "address"
        }
      ],
      "name": "isApprovedForAll",
      "outputs": [
        {
          "internalType": "bool",
          "name": "",
          "type": "bool"
        }
      ],
      "stateMutability": "view",
      "type": "function"
    },
    {
      "inputs": [],
      "name": "maxClaimsPerAddr",
      "outputs": [
        {
          "internalType": "uint256",
          "name": "",
          "type": "uint256"
        }
      ],
      "stateMutability": "view",
      "type": "function"
    },
    {
      "inputs": [],
      "name": "maxMintsPerAddr",
      "outputs": [
        {
          "internalType": "uint256",
          "name": "",
          "type": "uint256"
        }
      ],
      "stateMutability": "view",
      "type": "function"
    },
    {
      "inputs": [],
      "name": "maxSupply",
      "outputs": [
        {
          "internalType": "uint256",
          "name": "",
          "type": "uint256"
        }
      ],
      "stateMutability": "view",
      "type": "function"
    },
    {
      "inputs": [
        {
          "internalType": "address",
          "name": "",
          "type": "address"
        }
      ],
      "name": "mintsPerAddr",
      "outputs": [
        {
          "internalType": "uint256",
          "name": "",
          "type": "uint256"
        }
      ],
      "stateMutability": "view",
      "type": "function"
    },
    {
      "inputs": [],
      "name": "name",
      "outputs": [
        {
          "internalType": "string",
          "name": "",
          "type": "string"
        }
      ],
      "stateMutability": "view",
      "type": "function"
    },
    {
      "inputs": [],
      "name": "owner",
      "outputs": [
        {
          "internalType": "address",
          "name": "",
          "type": "address"
        }
      ],
      "stateMutability": "view",
      "type": "function"
    },
    {
      "inputs": [
        {
          "internalType": "uint256",
          "name": "tokenId",
          "type": "uint256"
        }
      ],
      "name": "ownerOf",
      "outputs": [
        {
          "internalType": "address",
          "name": "",
          "type": "address"
        }
      ],
      "stateMutability": "view",
      "type": "function"
    },
    {
      "inputs": [],
      "name": "releaseDuration",
      "outputs": [
        {
          "internalType": "uint256",
          "name": "",
          "type": "uint256"
        }
      ],
      "stateMutability": "view",
      "type": "function"
    },
    {
      "inputs": [],
      "name": "releaseEnd",
      "outputs": [
        {
          "internalType": "uint256",
          "name": "",
          "type": "uint256"
        }
      ],
      "stateMutability": "view",
      "type": "function"
    },
    {
      "inputs": [],
      "name": "releaseMaxSupply",
      "outputs": [
        {
          "internalType": "uint256",
          "name": "",
          "type": "uint256"
        }
      ],
      "stateMutability": "view",
      "type": "function"
    },
    {
      "inputs": [],
      "name": "releaseMinted",
      "outputs": [
        {
          "internalType": "uint256",
          "name": "",
          "type": "uint256"
        }
      ],
      "stateMutability": "view",
      "type": "function"
    },
    {
      "inputs": [],
      "name": "releaseStart",
      "outputs": [
        {
          "internalType": "uint256",
          "name": "",
          "type": "uint256"
        }
      ],
      "stateMutability": "view",
      "type": "function"
    },
    {
      "inputs": [],
      "name": "renounceOwnership",
      "outputs": [],
      "stateMutability": "nonpayable",
      "type": "function"
    },
    {
      "inputs": [],
      "name": "reserveAmount",
      "outputs": [
        {
          "internalType": "uint256",
          "name": "",
          "type": "uint256"
        }
      ],
      "stateMutability": "view",
      "type": "function"
    },
    {
      "inputs": [
        {
          "internalType": "address",
          "name": "to",
          "type": "address"
        },
        {
          "internalType": "uint256",
          "name": "numberOfTokens",
          "type": "uint256"
        }
      ],
      "name": "reserveTickets",
      "outputs": [],
      "stateMutability": "nonpayable",
      "type": "function"
    },
    {
      "inputs": [
        {
          "internalType": "address",
          "name": "from",
          "type": "address"
        },
        {
          "internalType": "address",
          "name": "to",
          "type": "address"
        },
        {
          "internalType": "uint256",
          "name": "tokenId",
          "type": "uint256"
        }
      ],
      "name": "safeTransferFrom",
      "outputs": [],
      "stateMutability": "nonpayable",
      "type": "function"
    },
    {
      "inputs": [
        {
          "internalType": "address",
          "name": "from",
          "type": "address"
        },
        {
          "internalType": "address",
          "name": "to",
          "type": "address"
        },
        {
          "internalType": "uint256",
          "name": "tokenId",
          "type": "uint256"
        },
        {
          "internalType": "bytes",
          "name": "_data",
          "type": "bytes"
        }
      ],
      "name": "safeTransferFrom",
      "outputs": [],
      "stateMutability": "nonpayable",
      "type": "function"
    },
    {
      "inputs": [
        {
          "internalType": "address",
          "name": "operator",
          "type": "address"
        },
        {
          "internalType": "bool",
          "name": "approved",
          "type": "bool"
        }
      ],
      "name": "setApprovalForAll",
      "outputs": [],
      "stateMutability": "nonpayable",
      "type": "function"
    },
    {
      "inputs": [
        {
          "internalType": "string",
          "name": "newBaseURI",
          "type": "string"
        }
      ],
      "name": "setBaseURI",
      "outputs": [],
      "stateMutability": "nonpayable",
      "type": "function"
    },
    {
      "inputs": [
        {
          "internalType": "uint256",
          "name": "_releaseStart",
          "type": "uint256"
        },
        {
          "internalType": "uint256",
          "name": "_releaseEnd",
          "type": "uint256"
        },
        {
          "internalType": "uint256",
          "name": "_releaseMaxSupply",
          "type": "uint256"
        }
      ],
      "name": "setupRelease",
      "outputs": [],
      "stateMutability": "nonpayable",
      "type": "function"
    },
    {
      "inputs": [
        {
          "internalType": "bytes4",
          "name": "interfaceId",
          "type": "bytes4"
        }
      ],
      "name": "supportsInterface",
      "outputs": [
        {
          "internalType": "bool",
          "name": "",
          "type": "bool"
        }
      ],
      "stateMutability": "view",
      "type": "function"
    },
    {
      "inputs": [],
      "name": "symbol",
      "outputs": [
        {
          "internalType": "string",
          "name": "",
          "type": "string"
        }
      ],
      "stateMutability": "view",
      "type": "function"
    },
    {
      "inputs": [
        {
          "internalType": "uint256",
          "name": "index",
          "type": "uint256"
        }
      ],
      "name": "tokenByIndex",
      "outputs": [
        {
          "internalType": "uint256",
          "name": "",
          "type": "uint256"
        }
      ],
      "stateMutability": "view",
      "type": "function"
    },
    {
      "inputs": [
        {
          "internalType": "address",
          "name": "owner",
          "type": "address"
        },
        {
          "internalType": "uint256",
          "name": "index",
          "type": "uint256"
        }
      ],
      "name": "tokenOfOwnerByIndex",
      "outputs": [
        {
          "internalType": "uint256",
          "name": "",
          "type": "uint256"
        }
      ],
      "stateMutability": "view",
      "type": "function"
    },
    {
      "inputs": [
        {
          "internalType": "uint256",
          "name": "tokenId",
          "type": "uint256"
        }
      ],
      "name": "tokenURI",
      "outputs": [
        {
          "internalType": "string",
          "name": "",
          "type": "string"
        }
      ],
      "stateMutability": "view",
      "type": "function"
    },
    {
      "inputs": [],
      "name": "totalSupply",
      "outputs": [
        {
          "internalType": "uint256",
          "name": "",
          "type": "uint256"
        }
      ],
      "stateMutability": "view",
      "type": "function"
    },
    {
      "inputs": [
        {
          "internalType": "address",
          "name": "from",
          "type": "address"
        },
        {
          "internalType": "address",
          "name": "to",
          "type": "address"
        },
        {
          "internalType": "uint256",
          "name": "tokenId",
          "type": "uint256"
        }
      ],
      "name": "transferFrom",
      "outputs": [],
      "stateMutability": "nonpayable",
      "type": "function"
    },
    {
      "inputs": [
        {
          "internalType": "address",
          "name": "newOwner",
          "type": "address"
        }
      ],
      "name": "transferOwnership",
      "outputs": [],
      "stateMutability": "nonpayable",
      "type": "function"
    },
    {
      "inputs": [],
      "name": "weth",
      "outputs": [
        {
          "internalType": "contract IERC20",
          "name": "",
          "type": "address"
        }
      ],
      "stateMutability": "view",
      "type": "function"
    },
    {
      "inputs": [],
      "name": "withdrawWETH",
      "outputs": [],
      "stateMutability": "nonpayable",
      "type": "function"
    }
  ],
  "transactionHash": "0xb7ca9c115839dabd629d4b75ff73e2b25d9ac79e82890481e707db6b52b0a4a3",
  "args": [
    "0xA6FA4fB5f76172d178d61B04b0ecd319C5d1C0aa"
  ],
  "solcInputHash": "43e51b96488de1125bbfd9f5dade99c2",
  "bytecode": "0x60a06040526101f4600b553480156200001757600080fd5b5060405162002abe38038062002abe8339810160408190526200003a91620001e2565b604080518082018252601a81527f41706f6c6c6f3230323220426f617264696e672050617373657300000000000060208083019182528351808501909452600a84526920b837b636379918191960b11b908401528151919291620000a1916000916200013c565b508051620000b79060019060208401906200013c565b505050620000d4620000ce620000e660201b60201c565b620000ea565b6001600160a01b031660805262000251565b3390565b600a80546001600160a01b038381166001600160a01b0319831681179093556040519116919082907f8be0079c531659141344cd1fd0a4f28419497f9722a3daafe3b4186f6b6457e090600090a35050565b8280546200014a9062000214565b90600052602060002090601f0160209004810192826200016e5760008555620001b9565b82601f106200018957805160ff1916838001178555620001b9565b82800160010185558215620001b9579182015b82811115620001b95782518255916020019190600101906200019c565b50620001c7929150620001cb565b5090565b5b80821115620001c75760008155600101620001cc565b600060208284031215620001f557600080fd5b81516001600160a01b03811681146200020d57600080fd5b9392505050565b600181811c908216806200022957607f821691505b602082108114156200024b57634e487b7160e01b600052602260045260246000fd5b50919050565b60805161283c620002826000396000818161034c01528181610b3001528181610ba50152610e23015261283c6000f3fe608060405234801561001057600080fd5b506004361061025e5760003560e01c806366a5ef2f116101465780639c84e6f2116100c3578063c87b56dd11610087578063c87b56dd146104e7578063cd34f0ee146104fa578063d5abeb0114610503578063e985e9c51461050c578063f2fde38b14610548578063f9b418911461055b57600080fd5b80639c84e6f214610491578063a22cb46514610499578063ab8caf3b146104ac578063b88d4fde146104b4578063c4d2696d146104c757600080fd5b80638033fe491161010a5780638033fe491461044e5780638620410b146104575780638da5cb5b1461046557806393e0682b1461047657806395d89b411461048957600080fd5b806366a5ef2f1461040e5780636b49e5f91461042157806370a082311461042a578063715018a61461043d578063766e33f41461044557600080fd5b80633fc8cef3116101df5780634b09b72a116101a35780634b09b72a146103bc5780634c02f62e146103c55780634f6ccce7146103cd57806355f804b3146103e057806356ce0f67146103f35780636352211e146103fb57600080fd5b80633fc8cef31461034757806342842e0e1461036e57806342966c681461038157806344098c9f1461039457806348a0d754146103b457600080fd5b806318160ddd1161022657806318160ddd146102f35780631966ebb81461030557806323b872dd1461030e5780632a11ced0146103215780632f745c591461033457600080fd5b806301ffc9a71461026357806306fdde031461028b578063081812fc146102a0578063095ea7b3146102cb5780630e75822c146102e0575b600080fd5b610276610271366004612200565b610564565b60405190151581526020015b60405180910390f35b610293610575565b6040516102829190612275565b6102b36102ae366004612288565b610607565b6040516001600160a01b039091168152602001610282565b6102de6102d93660046122bd565b6106a1565b005b6102de6102ee3660046122bd565b6107b7565b6008545b604051908152602001610282565b6102f760125481565b6102de61031c3660046122e7565b6108d2565b6102b361032f366004612288565b610904565b6102f76103423660046122bd565b61092e565b6102b37f000000000000000000000000000000000000000000000000000000000000000081565b6102de61037c3660046122e7565b6109c4565b6102de61038f366004612288565b6109df565b6102f76103a2366004612323565b60146020526000908152604090205481565b6102f7610a59565b6102f7600c5481565b6102de610ae3565b6102f76103db366004612288565b610bce565b6102de6103ee3660046123ca565b610c61565b6102f7600181565b6102b3610409366004612288565b610ca2565b6102de61041c3660046122bd565b610d19565b6102f760105481565b6102f7610438366004612323565b610e77565b6102de610efe565b6102f7600d5481565b6102f7600e5481565b6102f7662386f26fc1000081565b600a546001600160a01b03166102b3565b6102de610484366004612413565b610f32565b610293611067565b6102de611076565b6102de6104a736600461244d565b61120d565b6102f7600581565b6102de6104c2366004612484565b6112d2565b6102f76104d5366004612323565b60156020526000908152604090205481565b6102936104f5366004612288565b611304565b6102f760115481565b6102f761271081565b61027661051a366004612500565b6001600160a01b03918216600090815260056020908152604080832093909416825291909152205460ff1690565b6102de610556366004612323565b61138b565b6102f7600f5481565b600061056f82611423565b92915050565b60606000805461058490612533565b80601f01602080910402602001604051908101604052809291908181526020018280546105b090612533565b80156105fd5780601f106105d2576101008083540402835291602001916105fd565b820191906000526020600020905b8154815290600101906020018083116105e057829003601f168201915b5050505050905090565b6000818152600260205260408120546001600160a01b03166106855760405162461bcd60e51b815260206004820152602c60248201527f4552433732313a20617070726f76656420717565727920666f72206e6f6e657860448201526b34b9ba32b73a103a37b5b2b760a11b60648201526084015b60405180910390fd5b506000908152600460205260409020546001600160a01b031690565b60006106ac82610ca2565b9050806001600160a01b0316836001600160a01b0316141561071a5760405162461bcd60e51b815260206004820152602160248201527f4552433732313a20617070726f76616c20746f2063757272656e74206f776e656044820152603960f91b606482015260840161067c565b336001600160a01b03821614806107365750610736813361051a565b6107a85760405162461bcd60e51b815260206004820152603860248201527f4552433732313a20617070726f76652063616c6c6572206973206e6f74206f7760448201527f6e6572206e6f7220617070726f76656420666f7220616c6c0000000000000000606482015260840161067c565b6107b28383611448565b505050565b600a546001600160a01b031633146107e15760405162461bcd60e51b815260040161067c9061256e565b612710816012546107f291906125b9565b11156108105760405162461bcd60e51b815260040161067c906125d1565b600b5481600c5461082191906125b9565b111561087b5760405162461bcd60e51b815260206004820152602360248201527f4d696e7420776f756c64206578656564206d617820616c6c6f77656420616d6f6044820152621d5b9d60ea1b606482015260840161067c565b806012600082825461088d91906125b9565b9250508190555080600c60008282546108a691906125b9565b90915550600090505b818110156107b2576108c0836114b6565b806108ca81612618565b9150506108af565b6108dd335b826114f7565b6108f95760405162461bcd60e51b815260040161067c90612633565b6107b28383836115ee565b6016818154811061091457600080fd5b6000918252602090912001546001600160a01b0316905081565b600061093983610e77565b821061099b5760405162461bcd60e51b815260206004820152602b60248201527f455243373231456e756d657261626c653a206f776e657220696e646578206f7560448201526a74206f6620626f756e647360a81b606482015260840161067c565b506001600160a01b03919091166000908152600660209081526040808320938352929052205490565b6107b2838383604051806020016040528060008152506112d2565b6109e8336108d7565b610a4d5760405162461bcd60e51b815260206004820152603060248201527f4552433732314275726e61626c653a2063616c6c6572206973206e6f74206f7760448201526f1b995c881b9bdc88185c1c1c9bdd995960821b606482015260840161067c565b610a5681611799565b50565b600080601154601054610a6c9190612684565b9050600d54421015610a8057600091505090565b600e54421115610a8f57919050565b6000600f54600d5442610aa29190612684565b601054610aaf919061269b565b610ab991906126ba565b90506011548111610acb576000610ad8565b601154610ad89082612684565b9250505090565b5090565b600a546001600160a01b03163314610b0d5760405162461bcd60e51b815260040161067c9061256e565b6040516370a0823160e01b8152306004820152610bcc9033906001600160a01b037f000000000000000000000000000000000000000000000000000000000000000016906370a0823190602401602060405180830381865afa158015610b77573d6000803e3d6000fd5b505050506040513d601f19601f82011682018060405250810190610b9b91906126dc565b6001600160a01b037f0000000000000000000000000000000000000000000000000000000000000000169190611840565b565b6000610bd960085490565b8210610c3c5760405162461bcd60e51b815260206004820152602c60248201527f455243373231456e756d657261626c653a20676c6f62616c20696e646578206f60448201526b7574206f6620626f756e647360a01b606482015260840161067c565b60088281548110610c4f57610c4f6126f5565b90600052602060002001549050919050565b600a546001600160a01b03163314610c8b5760405162461bcd60e51b815260040161067c9061256e565b8051610c9e90601390602084019061215a565b5050565b6000818152600260205260408120546001600160a01b03168061056f5760405162461bcd60e51b815260206004820152602960248201527f4552433732313a206f776e657220717565727920666f72206e6f6e657869737460448201526832b73a103a37b5b2b760b91b606482015260840161067c565b333214610d575760405162461bcd60e51b815260206004820152600c60248201526b4d7573742075736520454f4160a01b604482015260640161067c565b6001600160a01b038216600090815260146020526040902054600590610d7e9083906125b9565b1115610dcc5760405162461bcd60e51b815260206004820152601e60248201527f4d6178206d696e74732070657220616464726573732065786365656465640000604482015260640161067c565b60125481610dd960085490565b610de391906125b9565b1115610e015760405162461bcd60e51b815260040161067c906125d1565b6000610e14662386f26fc100008361269b565b9050610e4b6001600160a01b037f0000000000000000000000000000000000000000000000000000000000000000163330846118a3565b60005b82811015610e7157610e5f846118db565b80610e6981612618565b915050610e4e565b50505050565b60006001600160a01b038216610ee25760405162461bcd60e51b815260206004820152602a60248201527f4552433732313a2062616c616e636520717565727920666f7220746865207a65604482015269726f206164647265737360b01b606482015260840161067c565b506001600160a01b031660009081526003602052604090205490565b600a546001600160a01b03163314610f285760405162461bcd60e51b815260040161067c9061256e565b610bcc600061198b565b600a546001600160a01b03163314610f5c5760405162461bcd60e51b815260040161067c9061256e565b600e5442118015610f725750610f70610a59565b155b610fc85760405162461bcd60e51b815260206004820152602160248201527f50726576696f75732072656c65617365206973207374696c6c2072756e6e696e6044820152606760f81b606482015260840161067c565b61271081601254610fd991906125b9565b11156110275760405162461bcd60e51b815260206004820181905260248201527f496e636f72726563742072656c656173654d6178537570706c792076616c7565604482015260640161067c565b600d839055600e82905561103b8383612684565b600f556010819055601280548291906000906110589084906125b9565b90915550506000601155505050565b60606001805461058490612533565b3332146110b45760405162461bcd60e51b815260206004820152600c60248201526b4d7573742075736520454f4160a01b604482015260640161067c565b336000908152601560205260409020546001116111135760405162461bcd60e51b815260206004820152601f60248201527f4d617820636c61696d7320706572206164647265737320657863656564656400604482015260640161067c565b336000908152601460205260409020546005116111725760405162461bcd60e51b815260206004820152601e60248201527f4d6178206d696e74732070657220616464726573732065786365656465640000604482015260640161067c565b60125460085411156111965760405162461bcd60e51b815260040161067c906125d1565b60006111a0610a59565b116111e45760405162461bcd60e51b81526020600482015260146024820152734e6f207469636b65747320617661696c61626c6560601b604482015260640161067c565b3360009081526015602052604081208054916111ff83612618565b9190505550610bcc336118db565b6001600160a01b0382163314156112665760405162461bcd60e51b815260206004820152601960248201527f4552433732313a20617070726f766520746f2063616c6c657200000000000000604482015260640161067c565b3360008181526005602090815260408083206001600160a01b03871680855290835292819020805460ff191686151590811790915590519081529192917f17307eab39ab6107e8899845ad3d59bd9653f200f220920489ca2b5937696c31910160405180910390a35050565b6112dc33836114f7565b6112f85760405162461bcd60e51b815260040161067c90612633565b610e71848484846119dd565b6000818152600260205260409020546060906001600160a01b03166113835760405162461bcd60e51b815260206004820152602f60248201527f4552433732314d657461646174613a2055524920717565727920666f72206e6f60448201526e3732bc34b9ba32b73a103a37b5b2b760891b606482015260840161067c565b61056f611a10565b600a546001600160a01b031633146113b55760405162461bcd60e51b815260040161067c9061256e565b6001600160a01b03811661141a5760405162461bcd60e51b815260206004820152602660248201527f4f776e61626c653a206e6577206f776e657220697320746865207a65726f206160448201526564647265737360d01b606482015260840161067c565b610a568161198b565b60006001600160e01b0319821663780e9d6360e01b148061056f575061056f82611a1f565b600081815260046020526040902080546001600160a01b0319166001600160a01b038416908117909155819061147d82610ca2565b6001600160a01b03167f8c5be1e5ebec7d5bd14f71427d1e84f3dd0314c0f7b2291e5b200ac8c7c3b92560405160405180910390a45050565b6127106114c260085490565b11156114e05760405162461bcd60e51b815260040161067c906125d1565b60006114eb60085490565b9050610c9e8282611a6f565b6000818152600260205260408120546001600160a01b03166115705760405162461bcd60e51b815260206004820152602c60248201527f4552433732313a206f70657261746f7220717565727920666f72206e6f6e657860448201526b34b9ba32b73a103a37b5b2b760a11b606482015260840161067c565b600061157b83610ca2565b9050806001600160a01b0316846001600160a01b031614806115b65750836001600160a01b03166115ab84610607565b6001600160a01b0316145b806115e657506001600160a01b0380821660009081526005602090815260408083209388168352929052205460ff165b949350505050565b826001600160a01b031661160182610ca2565b6001600160a01b0316146116695760405162461bcd60e51b815260206004820152602960248201527f4552433732313a207472616e73666572206f6620746f6b656e2074686174206960448201526839903737ba1037bbb760b91b606482015260840161067c565b6001600160a01b0382166116cb5760405162461bcd60e51b8152602060048201526024808201527f4552433732313a207472616e7366657220746f20746865207a65726f206164646044820152637265737360e01b606482015260840161067c565b6116d6838383611bbd565b6116e1600082611448565b6001600160a01b038316600090815260036020526040812080546001929061170a908490612684565b90915550506001600160a01b03821660009081526003602052604081208054600192906117389084906125b9565b909155505060008181526002602052604080822080546001600160a01b0319166001600160a01b0386811691821790925591518493918716917fddf252ad1be2c89b69c2b068fc378daa952ba7f163c4a11628f55a4df523b3ef91a4505050565b60006117a482610ca2565b90506117b281600084611bbd565b6117bd600083611448565b6001600160a01b03811660009081526003602052604081208054600192906117e6908490612684565b909155505060008281526002602052604080822080546001600160a01b0319169055518391906001600160a01b038416907fddf252ad1be2c89b69c2b068fc378daa952ba7f163c4a11628f55a4df523b3ef908390a45050565b6040516001600160a01b0383166024820152604481018290526107b290849063a9059cbb60e01b906064015b60408051601f198184030181529190526020810180516001600160e01b03166001600160e01b031990931692909217909152611bc8565b6040516001600160a01b0380851660248301528316604482015260648101829052610e719085906323b872dd60e01b9060840161186c565b6001600160a01b03811660009081526014602052604090205461194457601680546001810182556000919091527fd833147d7dc355ba459fc788f669e58cfaf9dc25ddcd0702e87d69c7b51242890180546001600160a01b0319166001600160a01b0383161790555b6001600160a01b038116600090815260146020526040812080549161196883612618565b90915550506011805490600061197d83612618565b9190505550610a56816114b6565b600a80546001600160a01b038381166001600160a01b0319831681179093556040519116919082907f8be0079c531659141344cd1fd0a4f28419497f9722a3daafe3b4186f6b6457e090600090a35050565b6119e88484846115ee565b6119f484848484611c9a565b610e715760405162461bcd60e51b815260040161067c9061270b565b60606013805461058490612533565b60006001600160e01b031982166380ac58cd60e01b1480611a5057506001600160e01b03198216635b5e139f60e01b145b8061056f57506301ffc9a760e01b6001600160e01b031983161461056f565b6001600160a01b038216611ac55760405162461bcd60e51b815260206004820181905260248201527f4552433732313a206d696e7420746f20746865207a65726f2061646472657373604482015260640161067c565b6000818152600260205260409020546001600160a01b031615611b2a5760405162461bcd60e51b815260206004820152601c60248201527f4552433732313a20746f6b656e20616c7265616479206d696e74656400000000604482015260640161067c565b611b3660008383611bbd565b6001600160a01b0382166000908152600360205260408120805460019290611b5f9084906125b9565b909155505060008181526002602052604080822080546001600160a01b0319166001600160a01b03861690811790915590518392907fddf252ad1be2c89b69c2b068fc378daa952ba7f163c4a11628f55a4df523b3ef908290a45050565b6107b2838383611d98565b6000611c1d826040518060400160405280602081526020017f5361666545524332303a206c6f772d6c6576656c2063616c6c206661696c6564815250856001600160a01b0316611e509092919063ffffffff16565b8051909150156107b25780806020019051810190611c3b919061275d565b6107b25760405162461bcd60e51b815260206004820152602a60248201527f5361666545524332303a204552433230206f7065726174696f6e20646964206e6044820152691bdd081cdd58d8d9595960b21b606482015260840161067c565b60006001600160a01b0384163b15611d8d57604051630a85bd0160e11b81526001600160a01b0385169063150b7a0290611cde90339089908890889060040161277a565b6020604051808303816000875af1925050508015611d19575060408051601f3d908101601f19168201909252611d16918101906127b7565b60015b611d73573d808015611d47576040519150601f19603f3d011682016040523d82523d6000602084013e611d4c565b606091505b508051611d6b5760405162461bcd60e51b815260040161067c9061270b565b805181602001fd5b6001600160e01b031916630a85bd0160e11b1490506115e6565b506001949350505050565b6001600160a01b038316611df357611dee81600880546000838152600960205260408120829055600182018355919091527ff3f7a9fe364faab93b216da50a3214154f22a0a2b415b23a84c8169e8b636ee30155565b611e16565b816001600160a01b0316836001600160a01b031614611e1657611e168382611e69565b6001600160a01b038216611e2d576107b281611f06565b826001600160a01b0316826001600160a01b0316146107b2576107b28282611fb5565b6060611e5f8484600085611ff9565b90505b9392505050565b60006001611e7684610e77565b611e809190612684565b600083815260076020526040902054909150808214611ed3576001600160a01b03841660009081526006602090815260408083208584528252808320548484528184208190558352600790915290208190555b5060009182526007602090815260408084208490556001600160a01b039094168352600681528383209183525290812055565b600854600090611f1890600190612684565b60008381526009602052604081205460088054939450909284908110611f4057611f406126f5565b906000526020600020015490508060088381548110611f6157611f616126f5565b6000918252602080832090910192909255828152600990915260408082208490558582528120556008805480611f9957611f996127d4565b6001900381819060005260206000200160009055905550505050565b6000611fc083610e77565b6001600160a01b039093166000908152600660209081526040808320868452825280832085905593825260079052919091209190915550565b60608247101561205a5760405162461bcd60e51b815260206004820152602660248201527f416464726573733a20696e73756666696369656e742062616c616e636520666f6044820152651c8818d85b1b60d21b606482015260840161067c565b843b6120a85760405162461bcd60e51b815260206004820152601d60248201527f416464726573733a2063616c6c20746f206e6f6e2d636f6e7472616374000000604482015260640161067c565b600080866001600160a01b031685876040516120c491906127ea565b60006040518083038185875af1925050503d8060008114612101576040519150601f19603f3d011682016040523d82523d6000602084013e612106565b606091505b5091509150612116828286612121565b979650505050505050565b60608315612130575081611e62565b8251156121405782518084602001fd5b8160405162461bcd60e51b815260040161067c9190612275565b82805461216690612533565b90600052602060002090601f01602090048101928261218857600085556121ce565b82601f106121a157805160ff19168380011785556121ce565b828001600101855582156121ce579182015b828111156121ce5782518255916020019190600101906121b3565b50610adf9291505b80821115610adf57600081556001016121d6565b6001600160e01b031981168114610a5657600080fd5b60006020828403121561221257600080fd5b8135611e62816121ea565b60005b83811015612238578181015183820152602001612220565b83811115610e715750506000910152565b6000815180845261226181602086016020860161221d565b601f01601f19169290920160200192915050565b602081526000611e626020830184612249565b60006020828403121561229a57600080fd5b5035919050565b80356001600160a01b03811681146122b857600080fd5b919050565b600080604083850312156122d057600080fd5b6122d9836122a1565b946020939093013593505050565b6000806000606084860312156122fc57600080fd5b612305846122a1565b9250612313602085016122a1565b9150604084013590509250925092565b60006020828403121561233557600080fd5b611e62826122a1565b634e487b7160e01b600052604160045260246000fd5b600067ffffffffffffffff8084111561236f5761236f61233e565b604051601f8501601f19908116603f011681019082821181831017156123975761239761233e565b816040528093508581528686860111156123b057600080fd5b858560208301376000602087830101525050509392505050565b6000602082840312156123dc57600080fd5b813567ffffffffffffffff8111156123f357600080fd5b8201601f8101841361240457600080fd5b6115e684823560208401612354565b60008060006060848603121561242857600080fd5b505081359360208301359350604090920135919050565b8015158114610a5657600080fd5b6000806040838503121561246057600080fd5b612469836122a1565b915060208301356124798161243f565b809150509250929050565b6000806000806080858703121561249a57600080fd5b6124a3856122a1565b93506124b1602086016122a1565b925060408501359150606085013567ffffffffffffffff8111156124d457600080fd5b8501601f810187136124e557600080fd5b6124f487823560208401612354565b91505092959194509250565b6000806040838503121561251357600080fd5b61251c836122a1565b915061252a602084016122a1565b90509250929050565b600181811c9082168061254757607f821691505b6020821081141561256857634e487b7160e01b600052602260045260246000fd5b50919050565b6020808252818101527f4f776e61626c653a2063616c6c6572206973206e6f7420746865206f776e6572604082015260600190565b634e487b7160e01b600052601160045260246000fd5b600082198211156125cc576125cc6125a3565b500190565b60208082526027908201527f4d696e7420776f756c6420657863656564206d617820737570706c79206f66206040820152665469636b65747360c81b606082015260800190565b600060001982141561262c5761262c6125a3565b5060010190565b60208082526031908201527f4552433732313a207472616e736665722063616c6c6572206973206e6f74206f6040820152701ddb995c881b9bdc88185c1c1c9bdd9959607a1b606082015260800190565b600082821015612696576126966125a3565b500390565b60008160001904831182151516156126b5576126b56125a3565b500290565b6000826126d757634e487b7160e01b600052601260045260246000fd5b500490565b6000602082840312156126ee57600080fd5b5051919050565b634e487b7160e01b600052603260045260246000fd5b60208082526032908201527f4552433732313a207472616e7366657220746f206e6f6e20455243373231526560408201527131b2b4bb32b91034b6b83632b6b2b73a32b960711b606082015260800190565b60006020828403121561276f57600080fd5b8151611e628161243f565b6001600160a01b03858116825284166020820152604081018390526080606082018190526000906127ad90830184612249565b9695505050505050565b6000602082840312156127c957600080fd5b8151611e62816121ea565b634e487b7160e01b600052603160045260246000fd5b600082516127fc81846020870161221d565b919091019291505056fea26469706673582212209ea12540b83991a5be6e3da63a8dcd3de5d411a3b46a9bdc30731c8620781f9664736f6c634300080a0033",
  "devdoc": {
    "details": "Extends ERC721 Non-Fungible Token Standard basic implementation",
    "kind": "dev",
    "methods": {
      "approve(address,uint256)": {
        "details": "See {IERC721-approve}."
      },
      "balanceOf(address)": {
        "details": "See {IERC721-balanceOf}."
      },
      "burn(uint256)": {
        "details": "Burns `tokenId`. See {ERC721-_burn}. Requirements: - The caller must own `tokenId` or be an approved operator."
      },
      "getApproved(uint256)": {
        "details": "See {IERC721-getApproved}."
      },
      "isApprovedForAll(address,address)": {
        "details": "See {IERC721-isApprovedForAll}."
      },
      "name()": {
        "details": "See {IERC721Metadata-name}."
      },
      "owner()": {
        "details": "Returns the address of the current owner."
      },
      "ownerOf(uint256)": {
        "details": "See {IERC721-ownerOf}."
      },
      "renounceOwnership()": {
        "details": "Leaves the contract without owner. It will not be possible to call `onlyOwner` functions anymore. Can only be called by the current owner. NOTE: Renouncing ownership will leave the contract without an owner, thereby removing any functionality that is only available to the owner."
      },
      "safeTransferFrom(address,address,uint256)": {
        "details": "See {IERC721-safeTransferFrom}."
      },
      "safeTransferFrom(address,address,uint256,bytes)": {
        "details": "See {IERC721-safeTransferFrom}."
      },
      "setApprovalForAll(address,bool)": {
        "details": "See {IERC721-setApprovalForAll}."
      },
      "symbol()": {
        "details": "See {IERC721Metadata-symbol}."
      },
      "tokenByIndex(uint256)": {
        "details": "See {IERC721Enumerable-tokenByIndex}."
      },
      "tokenOfOwnerByIndex(address,uint256)": {
        "details": "See {IERC721Enumerable-tokenOfOwnerByIndex}."
      },
      "tokenURI(uint256)": {
        "details": "See {IERC721Metadata-tokenURI}."
      },
      "totalSupply()": {
        "details": "See {IERC721Enumerable-totalSupply}."
      },
      "transferFrom(address,address,uint256)": {
        "details": "See {IERC721-transferFrom}."
      },
      "transferOwnership(address)": {
        "details": "Transfers ownership of the contract to a new account (`newOwner`). Can only be called by the current owner."
      }
    },
    "title": "Apollo2022 Boarding Passes Contract",
    "version": 1
  },
  "userdoc": {
    "kind": "user",
    "methods": {
      "buyTicket(address,uint256)": {
        "notice": "Buy ticket"
      },
      "claimTicket()": {
        "notice": "Claim free ticket"
      }
    },
    "version": 1
  },
  "storageLayout": {
    "storage": [
      {
        "astId": 1042,
        "contract": "contracts/Apollo2022.sol:Apollo2022",
        "label": "_name",
        "offset": 0,
        "slot": "0",
        "type": "t_string_storage"
      },
      {
        "astId": 1044,
        "contract": "contracts/Apollo2022.sol:Apollo2022",
        "label": "_symbol",
        "offset": 0,
        "slot": "1",
        "type": "t_string_storage"
      },
      {
        "astId": 1048,
        "contract": "contracts/Apollo2022.sol:Apollo2022",
        "label": "_owners",
        "offset": 0,
        "slot": "2",
        "type": "t_mapping(t_uint256,t_address)"
      },
      {
        "astId": 1052,
        "contract": "contracts/Apollo2022.sol:Apollo2022",
        "label": "_balances",
        "offset": 0,
        "slot": "3",
        "type": "t_mapping(t_address,t_uint256)"
      },
      {
        "astId": 1056,
        "contract": "contracts/Apollo2022.sol:Apollo2022",
        "label": "_tokenApprovals",
        "offset": 0,
        "slot": "4",
        "type": "t_mapping(t_uint256,t_address)"
      },
      {
        "astId": 1062,
        "contract": "contracts/Apollo2022.sol:Apollo2022",
        "label": "_operatorApprovals",
        "offset": 0,
        "slot": "5",
        "type": "t_mapping(t_address,t_mapping(t_address,t_bool))"
      },
      {
        "astId": 2011,
        "contract": "contracts/Apollo2022.sol:Apollo2022",
        "label": "_ownedTokens",
        "offset": 0,
        "slot": "6",
        "type": "t_mapping(t_address,t_mapping(t_uint256,t_uint256))"
      },
      {
        "astId": 2015,
        "contract": "contracts/Apollo2022.sol:Apollo2022",
        "label": "_ownedTokensIndex",
        "offset": 0,
        "slot": "7",
        "type": "t_mapping(t_uint256,t_uint256)"
      },
      {
        "astId": 2018,
        "contract": "contracts/Apollo2022.sol:Apollo2022",
        "label": "_allTokens",
        "offset": 0,
        "slot": "8",
        "type": "t_array(t_uint256)dyn_storage"
      },
      {
        "astId": 2022,
        "contract": "contracts/Apollo2022.sol:Apollo2022",
        "label": "_allTokensIndex",
        "offset": 0,
        "slot": "9",
        "type": "t_mapping(t_uint256,t_uint256)"
      },
      {
        "astId": 7,
        "contract": "contracts/Apollo2022.sol:Apollo2022",
        "label": "_owner",
        "offset": 0,
        "slot": "10",
        "type": "t_address"
      },
      {
        "astId": 3189,
        "contract": "contracts/Apollo2022.sol:Apollo2022",
        "label": "reserveMaxAmount",
        "offset": 0,
        "slot": "11",
        "type": "t_uint256"
      },
      {
        "astId": 3191,
        "contract": "contracts/Apollo2022.sol:Apollo2022",
        "label": "reserveAmount",
        "offset": 0,
        "slot": "12",
        "type": "t_uint256"
      },
      {
        "astId": 3193,
        "contract": "contracts/Apollo2022.sol:Apollo2022",
        "label": "releaseStart",
        "offset": 0,
        "slot": "13",
        "type": "t_uint256"
      },
      {
        "astId": 3195,
        "contract": "contracts/Apollo2022.sol:Apollo2022",
        "label": "releaseEnd",
        "offset": 0,
        "slot": "14",
        "type": "t_uint256"
      },
      {
        "astId": 3197,
        "contract": "contracts/Apollo2022.sol:Apollo2022",
        "label": "releaseDuration",
        "offset": 0,
        "slot": "15",
        "type": "t_uint256"
      },
      {
        "astId": 3199,
        "contract": "contracts/Apollo2022.sol:Apollo2022",
        "label": "releaseMaxSupply",
        "offset": 0,
        "slot": "16",
        "type": "t_uint256"
      },
      {
        "astId": 3201,
        "contract": "contracts/Apollo2022.sol:Apollo2022",
        "label": "releaseMinted",
        "offset": 0,
        "slot": "17",
        "type": "t_uint256"
      },
      {
        "astId": 3203,
        "contract": "contracts/Apollo2022.sol:Apollo2022",
        "label": "curMaxSupply",
        "offset": 0,
        "slot": "18",
        "type": "t_uint256"
      },
      {
        "astId": 3208,
        "contract": "contracts/Apollo2022.sol:Apollo2022",
        "label": "__baseURI",
        "offset": 0,
        "slot": "19",
        "type": "t_string_storage"
      },
      {
        "astId": 3212,
        "contract": "contracts/Apollo2022.sol:Apollo2022",
        "label": "mintsPerAddr",
        "offset": 0,
        "slot": "20",
        "type": "t_mapping(t_address,t_uint256)"
      },
      {
        "astId": 3216,
        "contract": "contracts/Apollo2022.sol:Apollo2022",
        "label": "claimsPerAddr",
        "offset": 0,
        "slot": "21",
        "type": "t_mapping(t_address,t_uint256)"
      },
      {
        "astId": 3219,
        "contract": "contracts/Apollo2022.sol:Apollo2022",
        "label": "holders",
        "offset": 0,
        "slot": "22",
        "type": "t_array(t_address)dyn_storage"
      }
    ],
    "types": {
      "t_address": {
        "encoding": "inplace",
        "label": "address",
        "numberOfBytes": "20"
      },
      "t_array(t_address)dyn_storage": {
        "base": "t_address",
        "encoding": "dynamic_array",
        "label": "address[]",
        "numberOfBytes": "32"
      },
      "t_array(t_uint256)dyn_storage": {
        "base": "t_uint256",
        "encoding": "dynamic_array",
        "label": "uint256[]",
        "numberOfBytes": "32"
      },
      "t_bool": {
        "encoding": "inplace",
        "label": "bool",
        "numberOfBytes": "1"
      },
      "t_mapping(t_address,t_bool)": {
        "encoding": "mapping",
        "key": "t_address",
        "label": "mapping(address => bool)",
        "numberOfBytes": "32",
        "value": "t_bool"
      },
      "t_mapping(t_address,t_mapping(t_address,t_bool))": {
        "encoding": "mapping",
        "key": "t_address",
        "label": "mapping(address => mapping(address => bool))",
        "numberOfBytes": "32",
        "value": "t_mapping(t_address,t_bool)"
      },
      "t_mapping(t_address,t_mapping(t_uint256,t_uint256))": {
        "encoding": "mapping",
        "key": "t_address",
        "label": "mapping(address => mapping(uint256 => uint256))",
        "numberOfBytes": "32",
        "value": "t_mapping(t_uint256,t_uint256)"
      },
      "t_mapping(t_address,t_uint256)": {
        "encoding": "mapping",
        "key": "t_address",
        "label": "mapping(address => uint256)",
        "numberOfBytes": "32",
        "value": "t_uint256"
      },
      "t_mapping(t_uint256,t_address)": {
        "encoding": "mapping",
        "key": "t_uint256",
        "label": "mapping(uint256 => address)",
        "numberOfBytes": "32",
        "value": "t_address"
      },
      "t_mapping(t_uint256,t_uint256)": {
        "encoding": "mapping",
        "key": "t_uint256",
        "label": "mapping(uint256 => uint256)",
        "numberOfBytes": "32",
        "value": "t_uint256"
      },
      "t_string_storage": {
        "encoding": "bytes",
        "label": "string",
        "numberOfBytes": "32"
      },
      "t_uint256": {
        "encoding": "inplace",
        "label": "uint256",
        "numberOfBytes": "32"
      }
    }
  }
}